{"abi":[{"type":"function","name":"computeAddress","inputs":[{"name":"salt","type":"bytes32","internalType":"bytes32"},{"name":"number","type":"uint256","internalType":"uint256"}],"outputs":[{"name":"","type":"address","internalType":"address"}],"stateMutability":"view"},{"type":"function","name":"deploy","inputs":[{"name":"salt","type":"bytes32","internalType":"bytes32"},{"name":"number","type":"uint256","internalType":"uint256"}],"outputs":[{"name":"","type":"address","internalType":"address"}],"stateMutability":"nonpayable"}],"bytecode":{"object":"0x6080604052348015600f57600080fd5b506103dc8061001f6000396000f3fe608060405234801561001057600080fd5b50600436106100365760003560e01c806324b82c9d1461003b578063f79b99e91461006a575b600080fd5b61004e6100493660046101e7565b61007d565b6040516001600160a01b03909116815260200160405180910390f35b61004e6100783660046101e7565b610149565b60008060405180602001610090906101da565b6020820181038252601f19601f820116604052509050600081846040516020016100bc91815260200190565b60408051601f19818403018152908290526100da9291602001610239565b60408051808303601f1901815282825280516020918201206001600160f81b0319828501523060601b6bffffffffffffffffffffffff19166021850152603584019890985260558084019890985281518084039098018852607590920190528551950194909420949350505050565b60008060006040518060200161015e906101da565b6020820181038252601f19601f8201166040525090506000818560405160200161018a91815260200190565b60408051601f19818403018152908290526101a89291602001610239565b6040516020818303038152906040529050858151602083016000f59250823b6101d057600080fd5b5090949350505050565b6101508061025783390190565b600080604083850312156101fa57600080fd5b50508035926020909101359150565b6000815160005b8181101561022a5760208185018101518683015201610210565b50600093019283525090919050565b600061024e6102488386610209565b84610209565b94935050505056fe6080604052348015600f57600080fd5b50604051610150380380610150833981016040819052602c916033565b600055604b565b600060208284031215604457600080fd5b5051919050565b60f7806100596000396000f3fe6080604052348015600f57600080fd5b5060043610603c5760003560e01c80633fb5c1cb1460415780638381f58a146053578063d09de08a14606d575b600080fd5b6051604c3660046083565b600055565b005b605b60005481565b60405190815260200160405180910390f35b6051600080549080607c83609b565b9190505550565b600060208284031215609457600080fd5b5035919050565b60006001820160ba57634e487b7160e01b600052601160045260246000fd5b506001019056fea26469706673582212209598a7aadb849e71e5dd6c885a15085e57a0c7a653ed27f9f251d9dce42437d564736f6c63430008190033a2646970667358221220f13237528fdee33d8a6f5b3415e540df66e4882052862089e624769efc3cbe3a64736f6c63430008190033","linkReferences":{}},"methodIdentifiers":{"computeAddress(bytes32,uint256)":"24b82c9d","deploy(bytes32,uint256)":"f79b99e9"},"id":20}