{
  "_format": "hh-sol-artifact-1",
  "contractName": "MyFirstToken",
  "sourceName": "contracts/MyFirstToken.sol",
  "abi": [
    {
      "inputs": [
        {
          "internalType": "address",
          "name": "spender",
          "type": "address"
        },
        {
          "internalType": "uint256",
          "name": "allowance",
          "type": "uint256"
        },
        {
          "internalType": "uint256",
          "name": "needed",
          "type": "uint256"
        }
      ],
      "name": "ERC20InsufficientAllowance",
      "type": "error"
    },
    {
      "inputs": [
        {
          "internalType": "address",
          "name": "sender",
          "type": "address"
        },
        {
          "internalType": "uint256",
          "name": "balance",
          "type": "uint256"
        },
        {
          "internalType": "uint256",
          "name": "needed",
          "type": "uint256"
        }
      ],
      "name": "ERC20InsufficientBalance",
      "type": "error"
    },
    {
      "inputs": [
        {
          "internalType": "address",
          "name": "approver",
          "type": "address"
        }
      ],
      "name": "ERC20InvalidApprover",
      "type": "error"
    },
    {
      "inputs": [
        {
          "internalType": "address",
          "name": "receiver",
          "type": "address"
        }
      ],
      "name": "ERC20InvalidReceiver",
      "type": "error"
    },
    {
      "inputs": [
        {
          "internalType": "address",
          "name": "sender",
          "type": "address"
        }
      ],
      "name": "ERC20InvalidSender",
      "type": "error"
    },
    {
      "inputs": [
        {
          "internalType": "address",
          "name": "spender",
          "type": "address"
        }
      ],
      "name": "ERC20InvalidSpender",
      "type": "error"
    },
    {
      "inputs": [],
      "name": "InvalidInitialization",
      "type": "error"
    },
    {
      "inputs": [],
      "name": "NotInitializing",
      "type": "error"
    },
    {
      "anonymous": false,
      "inputs": [
        {
          "indexed": true,
          "internalType": "address",
          "name": "owner",
          "type": "address"
        },
        {
          "indexed": true,
          "internalType": "address",
          "name": "spender",
          "type": "address"
        },
        {
          "indexed": false,
          "internalType": "uint256",
          "name": "value",
          "type": "uint256"
        }
      ],
      "name": "Approval",
      "type": "event"
    },
    {
      "anonymous": false,
      "inputs": [
        {
          "indexed": false,
          "internalType": "uint64",
          "name": "version",
          "type": "uint64"
        }
      ],
      "name": "Initialized",
      "type": "event"
    },
    {
      "anonymous": false,
      "inputs": [
        {
          "indexed": true,
          "internalType": "address",
          "name": "from",
          "type": "address"
        },
        {
          "indexed": true,
          "internalType": "address",
          "name": "to",
          "type": "address"
        },
        {
          "indexed": false,
          "internalType": "uint256",
          "name": "value",
          "type": "uint256"
        }
      ],
      "name": "Transfer",
      "type": "event"
    },
    {
      "inputs": [
        {
          "internalType": "address",
          "name": "owner",
          "type": "address"
        },
        {
          "internalType": "address",
          "name": "spender",
          "type": "address"
        }
      ],
      "name": "allowance",
      "outputs": [
        {
          "internalType": "uint256",
          "name": "",
          "type": "uint256"
        }
      ],
      "stateMutability": "view",
      "type": "function"
    },
    {
      "inputs": [
        {
          "internalType": "address",
          "name": "spender",
          "type": "address"
        },
        {
          "internalType": "uint256",
          "name": "value",
          "type": "uint256"
        }
      ],
      "name": "approve",
      "outputs": [
        {
          "internalType": "bool",
          "name": "",
          "type": "bool"
        }
      ],
      "stateMutability": "nonpayable",
      "type": "function"
    },
    {
      "inputs": [
        {
          "internalType": "address",
          "name": "account",
          "type": "address"
        }
      ],
      "name": "balanceOf",
      "outputs": [
        {
          "internalType": "uint256",
          "name": "",
          "type": "uint256"
        }
      ],
      "stateMutability": "view",
      "type": "function"
    },
    {
      "inputs": [],
      "name": "decimals",
      "outputs": [
        {
          "internalType": "uint8",
          "name": "",
          "type": "uint8"
        }
      ],
      "stateMutability": "view",
      "type": "function"
    },
    {
      "inputs": [
        {
          "internalType": "uint256",
          "name": "initialSupply",
          "type": "uint256"
        }
      ],
      "name": "initialize",
      "outputs": [],
      "stateMutability": "nonpayable",
      "type": "function"
    },
    {
      "inputs": [],
      "name": "name",
      "outputs": [
        {
          "internalType": "string",
          "name": "",
          "type": "string"
        }
      ],
      "stateMutability": "view",
      "type": "function"
    },
    {
      "inputs": [],
      "name": "owner",
      "outputs": [
        {
          "internalType": "address payable",
          "name": "",
          "type": "address"
        }
      ],
      "stateMutability": "view",
      "type": "function"
    },
    {
      "inputs": [],
      "name": "symbol",
      "outputs": [
        {
          "internalType": "string",
          "name": "",
          "type": "string"
        }
      ],
      "stateMutability": "view",
      "type": "function"
    },
    {
      "inputs": [],
      "name": "totalSupply",
      "outputs": [
        {
          "internalType": "uint256",
          "name": "",
          "type": "uint256"
        }
      ],
      "stateMutability": "view",
      "type": "function"
    },
    {
      "inputs": [
        {
          "internalType": "address",
          "name": "to",
          "type": "address"
        },
        {
          "internalType": "uint256",
          "name": "value",
          "type": "uint256"
        }
      ],
      "name": "transfer",
      "outputs": [
        {
          "internalType": "bool",
          "name": "",
          "type": "bool"
        }
      ],
      "stateMutability": "nonpayable",
      "type": "function"
    },
    {
      "inputs": [
        {
          "internalType": "address",
          "name": "from",
          "type": "address"
        },
        {
          "internalType": "address",
          "name": "to",
          "type": "address"
        },
        {
          "internalType": "uint256",
          "name": "value",
          "type": "uint256"
        }
      ],
      "name": "transferFrom",
      "outputs": [
        {
          "internalType": "bool",
          "name": "",
          "type": "bool"
        }
      ],
      "stateMutability": "nonpayable",
      "type": "function"
    }
  ],
  "bytecode": "0x608060405234801561001057600080fd5b50610be1806100206000396000f3fe608060405234801561001057600080fd5b50600436106100a95760003560e01c806370a082311161007157806370a08231146101425780638da5cb5b1461017857806395d89b41146101a3578063a9059cbb146101ab578063dd62ed3e146101be578063fe4b84df146101d157600080fd5b806306fdde03146100ae578063095ea7b3146100cc57806318160ddd146100ef57806323b872dd14610120578063313ce56714610133575b600080fd5b6100b66101e6565b6040516100c391906108d3565b60405180910390f35b6100df6100da36600461093e565b6102a9565b60405190151581526020016100c3565b7f52c63247e1f47db19d5ce0460030c497f067ca4cebf71ba98eeadabe20bace02545b6040519081526020016100c3565b6100df61012e366004610968565b6102c3565b604051601281526020016100c3565b6101126101503660046109a4565b6001600160a01b03166000908152600080516020610b8c833981519152602052604090205490565b60005461018b906001600160a01b031681565b6040516001600160a01b0390911681526020016100c3565b6100b66102e7565b6100df6101b936600461093e565b610326565b6101126101cc3660046109c6565b610334565b6101e46101df3660046109f9565b61037e565b005b7f52c63247e1f47db19d5ce0460030c497f067ca4cebf71ba98eeadabe20bace038054606091600080516020610b8c8339815191529161022590610a12565b80601f016020809104026020016040519081016040528092919081815260200182805461025190610a12565b801561029e5780601f106102735761010080835404028352916020019161029e565b820191906000526020600020905b81548152906001019060200180831161028157829003601f168201915b505050505091505090565b6000336102b78185856104e9565b60019150505b92915050565b6000336102d18582856104fb565b6102dc858585610566565b506001949350505050565b7f52c63247e1f47db19d5ce0460030c497f067ca4cebf71ba98eeadabe20bace048054606091600080516020610b8c8339815191529161022590610a12565b6000336102b7818585610566565b6001600160a01b0391821660009081527f52c63247e1f47db19d5ce0460030c497f067ca4cebf71ba98eeadabe20bace016020908152604080832093909416825291909152205490565b7ff0c57e16840df040f15088dc2f81fe391c3923bec73e23a9662efc9c229c6a008054600160401b810460ff16159067ffffffffffffffff166000811580156103c45750825b905060008267ffffffffffffffff1660011480156103e15750303b155b9050811580156103ef575080155b1561040d5760405163f92ee8a960e01b815260040160405180910390fd5b845467ffffffffffffffff19166001178555831561043757845460ff60401b1916600160401b1785555b61047f6040518060400160405280600b81526020016a546865576562546872656560a81b815250604051806040016040528060038152602001621515d560ea1b8152506105c5565b61048933876105db565b600080546001600160a01b0319163317905583156104e157845460ff60401b19168555604051600181527fc7f505b2f371ae2175ee4913f4499e1f2633a7b5936321eed1cdaeb6115181d29060200160405180910390a15b505050505050565b6104f68383836001610611565b505050565b60006105078484610334565b90506000198114610560578181101561055157604051637dc7a0d960e11b81526001600160a01b038416600482015260248101829052604481018390526064015b60405180910390fd5b61056084848484036000610611565b50505050565b6001600160a01b03831661059057604051634b637e8f60e11b815260006004820152602401610548565b6001600160a01b0382166105ba5760405163ec442f0560e01b815260006004820152602401610548565b6104f68383836106f9565b6105cd610837565b6105d78282610882565b5050565b6001600160a01b0382166106055760405163ec442f0560e01b815260006004820152602401610548565b6105d7600083836106f9565b600080516020610b8c8339815191526001600160a01b03851661064a5760405163e602df0560e01b815260006004820152602401610548565b6001600160a01b03841661067457604051634a1406b160e11b815260006004820152602401610548565b6001600160a01b038086166000908152600183016020908152604080832093881683529290522083905581156106f257836001600160a01b0316856001600160a01b03167f8c5be1e5ebec7d5bd14f71427d1e84f3dd0314c0f7b2291e5b200ac8c7c3b925856040516106e991815260200190565b60405180910390a35b5050505050565b600080516020610b8c8339815191526001600160a01b038416610735578181600201600082825461072a9190610a4c565b909155506107a79050565b6001600160a01b038416600090815260208290526040902054828110156107885760405163391434e360e21b81526001600160a01b03861660048201526024810182905260448101849052606401610548565b6001600160a01b03851660009081526020839052604090209083900390555b6001600160a01b0383166107c55760028101805483900390556107e4565b6001600160a01b03831660009081526020829052604090208054830190555b826001600160a01b0316846001600160a01b03167fddf252ad1be2c89b69c2b068fc378daa952ba7f163c4a11628f55a4df523b3ef8460405161082991815260200190565b60405180910390a350505050565b7ff0c57e16840df040f15088dc2f81fe391c3923bec73e23a9662efc9c229c6a0054600160401b900460ff1661088057604051631afcd79f60e31b815260040160405180910390fd5b565b61088a610837565b600080516020610b8c8339815191527f52c63247e1f47db19d5ce0460030c497f067ca4cebf71ba98eeadabe20bace036108c48482610acb565b50600481016105608382610acb565b60006020808352835180602085015260005b81811015610901578581018301518582016040015282016108e5565b506000604082860101526040601f19601f8301168501019250505092915050565b80356001600160a01b038116811461093957600080fd5b919050565b6000806040838503121561095157600080fd5b61095a83610922565b946020939093013593505050565b60008060006060848603121561097d57600080fd5b61098684610922565b925061099460208501610922565b9150604084013590509250925092565b6000602082840312156109b657600080fd5b6109bf82610922565b9392505050565b600080604083850312156109d957600080fd5b6109e283610922565b91506109f060208401610922565b90509250929050565b600060208284031215610a0b57600080fd5b5035919050565b600181811c90821680610a2657607f821691505b602082108103610a4657634e487b7160e01b600052602260045260246000fd5b50919050565b808201808211156102bd57634e487b7160e01b600052601160045260246000fd5b634e487b7160e01b600052604160045260246000fd5b601f8211156104f6576000816000526020600020601f850160051c81016020861015610aac5750805b601f850160051c820191505b818110156104e157828155600101610ab8565b815167ffffffffffffffff811115610ae557610ae5610a6d565b610af981610af38454610a12565b84610a83565b602080601f831160018114610b2e5760008415610b165750858301515b600019600386901b1c1916600185901b1785556104e1565b600085815260208120601f198616915b82811015610b5d57888601518255948401946001909101908401610b3e565b5085821015610b7b5787850151600019600388901b60f8161c191681555b5050505050600190811b0190555056fe52c63247e1f47db19d5ce0460030c497f067ca4cebf71ba98eeadabe20bace00a2646970667358221220707972150e5a615acd41451828270b17f0df1e00b9ac8faf858536b4167cfd2264736f6c63430008180033",
  "linkReferences": {},
  "deployedLinkReferences": {}
}